:04000000FEEF3FF0E0
:1008000000486F726172696F205554432D33003A6E
:100810000000966A956A8D6AE0EC04F0020E046EA0
:10082000010E3FEC06F0010E046E5BEC06F0170EB5
:10083000116E3B0E126E370E136E050E146E11C044
:1008400001F0026A000E046E0A0E036EACEC05F0B5
:100850000150300F0B6E11C001F0026A000E046EE1
:100860000A0E036E4BEC05F00150300F0C6E12C0F7
:1008700001F0026A000E046E0A0E036EACEC05F085
:100880000150300F0D6E12C001F0026A000E046EAE
:100890000A0E036E4BEC05F00150300F0E6E13C0C4
:1008A00001F0026A000E046E0A0E036EACEC05F055
:1008B0000150300F0F6E13C001F0026A000E046E7B
:1008C0000A0E036E4BEC05F00150300F106E14C091
:1008D00004F0020E3FEC06F00C5071EC06F0142808
:1008E000046E020E3FEC06F00B5071EC06F0145053
:1008F000020F046E020E3FEC06F00F0E046E5BEC6E
:1009000006F01450030F046E020E3FEC06F00E507A
:1009100071EC06F01450040F046E020E3FEC06F06A
:100920000D5071EC06F01450050F046E020E3FECF2
:1009300006F00F0E046E5BEC06F01450060F046E0A
:10094000020E3FEC06F0105071EC06F01450070F49
:10095000046E020E3FEC06F00F5071EC06F01A0E1A
:100960000A6E5E0E096E6E0EE82EFED7092EFCD7BB
:100970000A2EFAD700D0132A3C0E1318D8A4C3EFBE
:1009800004F0C5EF04F0C7EF04F0136A122A3C0E1E
:100990001218D8A4CEEF04F0D0EF04F0D2EF04F098
:1009A000126A112A180E1118D8A4D9EF04F0DBEF3F
:1009B00004F01FEF04F0116A1FEF04F0FEEF3FF0A8
:1009C000020E026E450E016EAA0EE82EFED7012E13
:1009D000FCD7022EFAD78C9E8C9C8C8A8C8887EC54
:1009E00006F01E0E016E370EE82EFED7012EFCD744
:1009F00000008C9E8C9C8C8A8C8887EC06F0C80E3C
:100A0000E82EFED78C9E8C9C8C8A8C8887EC06F016
:100A10008C9E8C9C8C8A8C9887EC06F08C9E8C9C8F
:100A20008C8A8C9887EC06F08C8E8C9C8C9A8C9897
:100A300087EC06F08C9E8C9C8C9A8C9887EC06F048
:100A40008C8E8C9C8C9A8C9887EC06F08C9E8C9C5F
:100A50008C9A8C9887EC06F08C9E8C9C8C9A8C8857
:100A600087EC06F08C9E8C9C8C9A8C9887EC06F018
:100A70008C9E8C8C8C8A8C9887EC06F08C9E8C9C3F
:100A80008C9A8C9887EC06F08C8E8C8C8C8A8C9847
:100A900087EC06F01200066A04BE53EF05F051EF32
:100AA00005F059EF05F0036C041ED8B0042A010EBE
:100AB000066E02BE60EF05F05EEF05F066EF05F032
:100AC000016C021ED8B0022A010E061A000E086E32
:100AD000000E076E03500410D8B471EF05F073EFE9
:100AE00005F09BEF05F0010E056E7BEF05F0D89049
:100AF00003360436052A04AE80EF05F082EF05F0D8
:100B000077EF05F0D890073608360350015C0450A3
:100B10000258D8A08EEF05F090EF05F095EF05F0A4
:100B20000350015E0450025A0780D8900432033209
:100B3000052E82EF05F00650D8B4A1EF05F0A3EF23
:100B400005F0A7EF05F0076C081ED8B0082A07C00B
:100B500001F008C002F01200066A02BEB4EF05F010
:100B6000B2EF05F0BAEF05F0016C021ED8B0022A10
:100B7000010E066E04BEC1EF05F0BFEF05F0C5EF34
:100B800005F0036C041ED8B0042A03500410D8B436
:100B9000CCEF05F0CEEF05F0F2EF05F0010E056E9B
:100BA000D6EF05F0D89003360436052A04AEDBEF05
:100BB00005F0DDEF05F0D2EF05F00350015C0450C5
:100BC0000258D8A0E6EF05F0E8EF05F0ECEF05F0ED
:100BD0000350015E0450025AD89004320332052EAD
:100BE000DDEF05F00650D8B4F8EF05F0FAEF05F0A8
:100BF000FEEF05F0016C021ED8B0022A01C001F020
:100C000002C002F01200026E02C001F0D890013260
:100C1000D8900132D8900132010E01160132013212
:100C20008C5001187F0B01188C6E02C001F0D89017
:100C30000132D8900132010E0116013A01460146F7
:100C40008C500118BF0B01188C6E02C001F0D890B7
:100C50000132010E0116013A01468C500118DF0BDA
:100C600001188C6E02C001F0010E0116013A8C5081
:100C70000118EF0B01188C6E87EC06F01200066E5F
:100C80000604D8A446EF06F048EF06F04BEF06F056
:100C900004507F0F056E020E0618D8A452EF06F01E
:100CA00054EF06F057EF06F00450BF0F056E0550E5
:100CB0007CEC06F0120064EF06F004C0F6FF0800BA
:100CC000F55071EC06F0042A04C0F6FF0800F55058
:100CD0000009D8A46EEF06F070EF06F05DEF06F0A5
:100CE0001200036E8D8003380F0B03EC06F00350E7
:100CF0000F0B03EC06F01200036E8D9003380F0B00
:100D000003EC06F003500F0B03EC06F012008D828B
:100D100000D000D000008D92A60EE82EFED700D0A5
:100D20001200000EF86E080EF76E000109EF04F0D5
:047FFC0091EF06F00B
:020000040030CA
:0E000000000C181EFF8181FF0FC00FE00F40A3
:00000001FF
