:04000000FEEF3FF0E0
:100800000025207C2054656D70657261747572617D
:100810003A200043207C2056656E746F696E6861D3
:100820003A200044757479206369636C653A20004E
:10083000506F74656E6369613A200054656D706530
:100840007261742E3D0025302E316600252E3166F2
:1008500000696E66006E616E000D0A0030003100A6
:0308600043000052
:100864000001816B56C082F057C083F058C084F0F9
:1008740059C085F085BF43EF04F041EF04F057EF12
:1008840004F0010E816F82C001F083C002F084C0C5
:1008940003F085C004F003EC1AF001C082F002C03A
:1008A40083F003C084F004C085F0000E0001876F5C
:1008B400000E866FE7C071F0E8C072F08151D8B4C1
:1008C40066EF04F068EF04F07CEF04F08151D8A4E3
:1008D4006EEF04F070EF04F076EF04F0000E676F33
:1008E4002B0E666F7AEF04F0000E676F2D0E666FA5
:1008F40066C081F082C001F083C002F084C003F0BE
:1009040085C004F061EC16F001040210D8A48DEF48
:1009140004F08FEF04F0BEEF04F000018151D8B46D
:1009240096EF04F098EF04F0A1EF04F081C000F119
:100934007107D8A07207000E876F010E866F000E34
:100944008625016E010E8721026E510E036ECAECDC
:1009540019F00001FD0E7127FF0E722355C00FF030
:10096400000E106E010E116E71C012F072C013F001
:1009740083EC18F058EF09F082C001F083C002F054
:1009840084C003F085C004F061EC16F0015002103D
:10099400D8A4CFEF04F0D1EF04F0EFEF04F000019E
:1009A4008151D8B4D8EF04F0DAEF04F0E3EF04F0A7
:1009B40081C000F17107D8A07207000E876F010E85
:1009C400866F000E8625016E010E8721026E550E7C
:1009D400036ECAEC19F0ABEF04F0000E0001886F4F
:1009E400000E896F800E8A6F3F0E8B6F000E706F42
:1009F400000E6F6F82C001F083C002F084C003F068
:100A040085C004F0000E056E000E066E000E076E23
:100A1400000E086EA0EC17F0D8B013EF05F015EF38
:100A240005F0F4EF05F022EF05F073C088F074C010
:100A340089F075C08AF076C08BF000016F4B702B83
:100A440088C00FF089C010F08AC011F08BC012F07A
:100A5400000E136E000E146E200E156E410E166EEF
:100A640091EC0EF00FC073F010C074F011C075F06B
:100A740012C076F000017351825D016E7451835986
:100A8400026E75518459036E76518559046E14ECC7
:100A940019F004BE59EF05F004500310021009E1E7
:100AA400020E015CD8A059EF05F05BEF05F017EFDB
:100AB40005F073C028F074C029F075C02AF076C020
:100AC4002BF082C02CF083C02DF084C02EF085C0A2
:100AD4002FF0DFEC15F0D8A072EF05F074EF05F0FD
:100AE40017EF05F000018851825D016E8951835929
:100AF400026E8A518459036E8B518559046E14EC2D
:100B040019F004BE93EF05F004500310021007E13E
:100B1400020E015CD8B091EF05F093EF05F0DBEF26
:100B240005F088C082F089C083F08AC084F08BC04D
:100B340085F0F4EF05F088C028F089C029F08AC058
:100B44002AF08BC02BF0000E2C6E000E2D6E200EA2
:100B54002E6E410E2F6EA4EC10F028C088F029C030
:100B640089F02AC08AF02BC08BF000016F07D8A04F
:100B740070078851825D016E89518359026E8A51D2
:100B84008459036E8B518559046E14EC19F004BE1C
:100B9400D9EF05F004500310021007E1020E015CC6
:100BA400D8B0D7EF05F0D9EF05F0DBEF05F093EF00
:100BB40005F082C028F083C029F084C02AF085C0E3
:100BC4002BF088C02CF089C02DF08AC02EF08BC089
:100BD4002FF0DFEC15F0D8A0F2EF05F0F4EF05F0FC
:100BE4009DEF05F05AC069F069C06AF00001EABFE0
:100BF400FEEF05F000EF06F006EF06F0E9C062F044
:100C0400EAC063F00AEF06F0000E636F060E626F2F
:100C140062C06DF063C06EF06D4B6E2B660E6A1988
:100C2400D8A417EF06F019EF06F039EF06F070BFFD
:100C340020EF06F01EEF06F02CEF06F0000E886F92
:100C4400000E896F800E8A6F3F0E8B6F000E706FDF
:100C5400000E6F6F670E6919D8B433EF06F035EFE5
:100C640006F039EF06F06F516D2770516E23000EB8
:100C7400806F000E7F6F82C077F083C078F084C0ED
:100C840079F085C07AF088C073F089C074F08AC0A6
:100C940075F08BC076F0CAEF06F077C028F078C004
:100CA40029F079C02AF07AC02BF088C02CF089C0D2
:100CB4002DF08AC02EF08BC02FF0A4EC10F028C0C9
:100CC40041F029C042F02AC043F02BC044F079EC33
:100CD40013F041C07BF042C07CF043C07DF044C0BF
:100CE4007EF07BC041F07CC042F07DC043F07EC00A
:100CF40044F05CEC15F041C06BF042C06CF077C07E
:100D040028F078C029F079C02AF07AC02BF07BC093
:100D140013F07CC014F07DC015F07EC016F088C0BE
:100D24000FF089C010F08AC011F08BC012F091EC62
:100D34000EF00FC02CF010C02DF011C02EF012C018
:100D44002FF067EC19F028C077F029C078F02AC09A
:100D540079F02BC07AF088C028F089C029F08AC0C5
:100D64002AF08BC02BF0000E2C6E000E2D6E200E80
:100D74002E6E410E2F6EA4EC10F028C088F029C00E
:100D840089F02AC08AF02BC08BF000017F4B802BA6
:100D94006D517F5D8051800A5B6E6E51800A5B5895
:100DA400D8A0D7EF06F0D9EF06F04FEF06F088C0D1
:100DB4000FF089C010F08AC011F08BC012F0000E41
:100DC400136E000E146EA00E156E400E166E91EC8E
:100DD4000EF00FC07BF010C07CF011C07DF012C08B
:100DE4007EF077C028F078C029F079C02AF07AC064
:100DF4002BF07BC02CF07CC02DF07DC02EF07EC08B
:100E04002FF0DFEC15F0D8B00AEF07F00CEF07F085
:100E140017EF07F0000E00017B6F000E7C6F000ED1
:100E24007D6F000E7E6F40EF07F077C001F078C051
:100E340002F079C003F07AC004F07BC005F07CC0F6
:100E440006F07DC007F07EC008F0A0EC17F0D8A033
:100E54002EEF07F030EF07F040EF07F000016BB121
:100E640036EF07F038EF07F040EF07F0000E7B6F26
:100E7400000E7C6F000E7D6F000E7E6F82C001F04D
:100E840083C002F084C003F085C004F07BC005F089
:100E94007CC006F07DC007F07EC008F036EC0CF094
:100EA40001C077F002C078F003C079F004C07AF092
:100EB40077C028F078C029F079C02AF07AC02BF0E6
:100EC400000E136E000E146E200E156E410E166E7B
:100ED40073C00FF074C010F075C011F076C012F03A
:100EE40091EC0EF00FC02CF010C02DF011C02EF0BC
:100EF40012C02FF0DFEC15F0D8A083EF07F085EFD8
:100F040007F0AEEF07F000016F4B702B73C00FF0CA
:100F140074C010F075C011F076C012F0000E136E9C
:100F2400000E146E200E156E410E166E91EC0EF02E
:100F34000FC073F010C074F011C075F012C076F0D9
:100F4400660E00016A19D8A4AAEF07F0ACEF07F007
:100F5400AEEF07F06D4B6E2B73C088F074C089F050
:100F640075C08AF076C08BF06FC060F070C061F01D
:100F74000001686B000E656F000E646F000E806FD9
:100F8400000E7F6FABEF08F077C028F078C029F02F
:100F940079C02AF07AC02BF088C02CF089C02DF0DB
:100FA4008AC02EF08BC02FF0A4EC10F028C041F0C2
:100FB40029C042F02AC043F02BC044F079EC13F06E
:100FC40041C07BF042C07CF043C07DF044C07EF061
:100FD4007BC041F07CC042F07DC043F07EC044F051
:100FE4005CEC15F042BE02EF08F0425007E10A0E35
:100FF400415CD8B000EF08F002EF08F012EF08F0FF
:101004007BC041F07CC042F07DC043F07EC044F020
:101014005CEC15F041C06BF042C06CF017EF08F0C7
:10102400000E00016C6F090E6B6F00016851D8A4AB
:101034001EEF08F020EF08F048EF08F061BF27EF3B
:1010440008F025EF08F048EF08F0000E8625D96E69
:10105400010E8721DA6E2E0EDF6E864B872B710709
:10106400D8A07207010E686F48EF08F0000E8625BD
:10107400D96E010E8721DA6E300EDF6E864B872B18
:101084007107D8A072076407D8A065076451651179
:10109400D8A44FEF08F051EF08F038EF08F0000E35
:1010A4008625D96E010E8721DA6E6B51300FDF6E03
:1010B400864B872B7107D8A0720777C028F078C0B9
:1010C40029F079C02AF07AC02BF07BC013F07CC0E1
:1010D40014F07DC015F07EC016F088C00FF089C0F2
:1010E40010F08AC011F08BC012F091EC0EF00FC01A
:1010F4002CF010C02DF011C02EF012C02FF067ECB0
:1011040019F028C077F029C078F02AC079F02BC0F4
:101114007AF088C028F089C029F08AC02AF08BC0F0
:101124002BF0000E2C6E000E2D6E200E2E6E410E36
:101134002F6EA4EC10F028C088F029C089F02AC0D2
:101144008AF02BC08BF000016007D8A061077F4BA9
:10115400802B6D517F5D8051800A5B6E6E51800AD9
:101164005B58D8B0B8EF08F0BAEF08F0C8EF08F051
:1011740087BFC6EF08F0875109E14B0E865DD8A002
:10118400C6EF08F0C8EF08F0C6EF07F0000E806F56
:101194004F0E7F6F000E7F25D96E010E8021DA6E0F
:1011A400DF6A000E5B6E010E5C6E86515B5E8751DA
:1011B4005C5A7F515B24016E80515C20026E000EEC
:1011C400036E010E046E86C005F087C006F03FEC86
:1011D40019F0000186517F5D866F87518059876FB2
:1011E4008151D8A4F8EF08F0FBEF08F0010EFCEFF2
:1011F40008F0000E7F6F806BEBA303EF09F005EF9F
:1012040009F033EF09F015EF09F08607D8A0870736
:10121400000E8625D96E010E8721DA6E300EDF6E40
:101224007107D8A0720771517F5D8051800A5B6E8F
:101234007251800A5B58D8B022EF09F024EF09F00C
:1012440033EF09F086517F5D8051800A5B6E8751D0
:10125400800A5B58D8A031EF09F033EF09F007EFAB
:1012640009F08151D8B439EF09F03BEF09F046EFAA
:1012740009F08607D8A08707000E8625D96E010ECF
:101284008721DA6E81C0DFFF7F51715F8051725B0D
:1012940055C00FF0000E8625106E010E8721116EC9
:1012A40071C012F072C013F083EC18F01200956A4A
:1012B400966A8D6A948C948E0F0EAF6EB06AAC9859
:1012C400AC94AB8EAC8A93908A909494070ECA6EB9
:1012D4001E0ECB6E750EBE6E0C0EBD6E0D0EC26E66
:1012E4000B0EC16E870EC06EE0EC16F00D0EC26ED2
:1012F400100EE82EFED700D0C282C2B284EF09F0ED
:1013040086EF09F07FEF09F0C4CFDDF00001DE6B5A
:10131400DD51AB6FAA6BC350AA25DD6F000EAB2164
:10132400DE6F000E136E000E146EA00E156E400ECE
:10133400166EDDC001F0DEC002F0000E02BEFF0E2C
:10134400036E046E010E82EC14F001C00FF002C0B3
:1013540010F003C011F004C012F091EC0EF00FC0B5
:1013640028F010C029F011C02AF012C02BF0000E92
:101374002C6EC00E2D6E7F0E2E6E440E2F6EA4ECBE
:1013840010F028C0D0F029C0D1F02AC0D2F02BC070
:10139400D3F0000E136E000E146EC80E156E420EBE
:1013A400166ED0C00FF0D1C010F0D2C011F0D3C06F
:1013B40012F091EC0EF00FC028F010C029F011C00B
:1013C4002AF012C02BF0000E2C6E000E2D6EA00E13
:1013D4002E6E400E2F6EA4EC10F028C0D5F029C05C
:1013E400D6F02AC0D7F02BC0D8F0CB500001AA6F9A
:1013F400AB6B010EAA27000EAB23AAC001F0ABC051
:1014040002F0000E02BEFF0E036E046E010E82ECAB
:1014140014F001C013F002C014F003C015F004C0AE
:1014240016F0000E2C6E000E2D6EC80E2E6E420E9F
:101434002F6ED5C028F0D6C029F0D7C02AF0D8C066
:101444002BF0A4EC10F028C00FF029C010F02AC033
:1014540011F02BC012F091EC0EF00FC0C4F010C0CC
:10146400C5F011C0C6F012C0C7F0000E136E000E16
:10147400146E800E156E400E166EC4C00FF0C5C0FB
:1014840010F0C6C011F0C7C012F091EC0EF00FC0FE
:1014940041F010C042F011C043F012C044F05CECC3
:1014A40015F041500001D46F010EC26E100EE82EEB
:1014B400FED700D0C282C2B262EF0AF064EF0AF033
:1014C4005DEF0AF0C4CFDDF00001DE6BDD51AB6FE0
:1014D400AA6BC350AA25DD6F000EAB21DE6F000E90
:1014E4002C6EC00E2D6E7F0E2E6E440E2F6E000ECF
:1014F400136E000E146EA00E156E400E166EDDC037
:1015040001F0DEC002F0000E02BEFF0E036E046E98
:10151400010E82EC14F001C00FF002C010F003C001
:1015240011F004C012F091EC0EF00FC028F010C0BE
:1015340029F011C02AF012C02BF0A4EC10F028C03E
:10154400C8F029C0C9F02AC0CAF02BC0CBF00A0EDB
:101554002C6ED70E2D6E230E2E6E3C0E2F6EC8C031
:1015640028F0C9C029F0CAC02AF0CBC02BF0A4ECE3
:1015740010F028C0CCF029C0CDF02AC0CEF02BC08A
:10158400CFF0CCC028F0CDC029F0CEC02AF0CFC017
:101594002BF0000E2C6E000E2D6E000E2E6E400EE3
:1015A4002F6EA4EC10F028C0D9F029C0DAF02AC0BC
:1015B400DBF02BC0DCF00001D441E8423F0BBE6EEF
:1015C400D4C0AAF0D890AA33010EAA17AA3BAA47FE
:1015D400BD50AA19DF0BAA19BD6ED4C0AAF0010E22
:1015E400AA17AA3BBD50AA19EF0BAA19BD6ED9C000
:1015F40028F0DAC029F0DBC02AF0DCC02BF0000EA2
:101604002C6E000E2D6E0C0E2E6E420E2F6EDFEC25
:1016140015F0D8A010EF0BF012EF0BF027EF0BF042
:101624008A80000E0001D56F000ED66F000ED76FB2
:10163400000ED86F410E0001AA6FEE0EE82EFED701
:10164400AA2FFCD700006FEF0BF0D9C028F0DAC046
:1016540029F0DBC02AF0DCC02BF0000E2C6E000E4B
:101664002D6E000E2E6E420E2F6EDFEC15F0D8B0EC
:101674003EEF0BF040EF0BF06FEF0BF08A90000E93
:10168400136E000E146EC80E156E420E166ED0C088
:101694000FF0D1C010F0D2C011F0D3C012F091EC11
:1016A4000EF00FC028F010C029F011C02AF012C0AB
:1016B4002BF0000E2C6E000E2D6EA00E2E6E400E22
:1016C4002F6EA4EC10F028C0D5F029C0D6F02AC0A3
:1016D400D7F02BC0D8F01CEF0BF062EC1AF0AC0E74
:1016E4000001986F460E996FD5C09AF0D6C09BF052
:1016F400D7C09CF0D8C09DF0E7EC19F0010E046E41
:10170400010E1FEC1AF0300E046E0450D8A4080E1B
:10171400056EE5EC18F0AC0E046E056AE5EC18F005
:10172400250E57EC1AF0AC0E0001986F460E996F17
:10173400D9C09AF0DAC09BF0DBC09CF0DCC09DF00D
:10174400E7EC19F0010E046E020E1FEC1AF03B0ECA
:10175400046E0450D8A4080E056EE5EC18F0AC0E27
:10176400046E056AE5EC18F0DF0E57EC1AF0600E13
:10177400046E0450D8A4080E056EE5EC18F0230E90
:10178400026E0250D8A4080E036EB6EC18F0BC0E1C
:101794000001986F4C0E996FD5C09AF0D6C09BF09B
:1017A400D7C09CF0D8C09DF0E7EC19F0BC0E026ED7
:1017B400036AB6EC18F0010E026E0250D8A4080EAB
:1017C400036EB6EC18F0C00E0001986F4C0E996FC2
:1017D400D9C09AF0DAC09BF0DBC09CF0DCC09DF06D
:1017E400E7EC19F0C00E026E036AB6EC18F0F80EBE
:1017F4004CEC1AF0130E026E0250D8A4080E036EBD
:10180400B6EC18F08AA009EF0CF00BEF0CF015EF12
:101814000CF05E0E026E0250D8A4080E036EB6ECF5
:1018240018F01DEF0CF05C0E026E0250D8A4080EE6
:10183400036EB6EC18F0590E026E0250D8A4080ECE
:10184400036EB6EC18F0030E0001AB6F8A0EAA6F9C
:10185400550EE82EFED7AA2FFCD7AB2FFAD700D00F
:1018640078EF09F0FEEF3FF00450800B0D6E04504A
:1018740004240F6E03AE41EF0CF043EF0CF044EF81
:101884000CF00F800F50D8B44AEF0CF04CEF0CF072
:1018940060EF0CF00F28D8A452EF0CF054EF0CF0CA
:1018A4005CEF0CF0000E016E000E026E000E036E73
:1018B400000E046E038E046A68EF0CF0000E016ED5
:1018C400000E026E000E036E000E046E0850800BB4
:1018D4000E6E0D500E18D8B472EF0CF074EF0CF0BD
:1018E40075EF0CF00D8C085008240E6E07AE7DEFDA
:1018F4000CF07FEF0CF080EF0CF00E800E50D8B49B
:1019040086EF0CF088EF0CF09CEF0CF00E28D8A4B6
:101914008EEF0CF090EF0CF098EF0CF0000E056ECB
:10192400000E066E000E076E000E086E078E086A23
:10193400A4EF0CF0000E056E000E066E000E076E8E
:10194400000E086E0F500E5CD8B0ABEF0CF0ADEF8C
:101954000CF0D4EF0CF00DACB2EF0CF0B4EF0CF0D3
:10196400B6EF0CF0800E0D1A0FC010F00EC00FF081
:1019740010C00EF001C010F005C001F010C005F059
:1019840002C010F006C002F010C006F003C010F050
:1019940007C003F010C007F004C010F008C004F042
:1019A40010C008F0106A0F500EC009F00A6A095EF0
:1019B400000E0A5A0ABEE8EF0CF00A5009E11A0EAA
:1019C400095CD8A0E8EF0CF0EAEF0CF021EF0DF081
:1019D4000150021003100410D8A4F3EF0CF0F6EF3A
:1019E4000CF0010EF7EF0CF0000E106E000E016EFD
:1019F400000E026E000E036E000E046E0EC00FF099
:101A04002AEF0DF010A009EF0DF00BEF0DF011EF20
:101A14000DF0D89010300109106E13EF0DF0D8902E
:101A2400103201A018EF0DF01AEF0DF01BEF0DF0BE
:101A3400108E043404320332023201320F2A0E5063
:101A44000F5CD8A028EF0DF02AEF0DF004EF0DF095
:101A54000DBC2FEF0DF031EF0DF071EF0DF00F50C5
:101A6400D8A437EF0DF039EF0DF043EF0DF0000E71
:101A7400016E000E026E000E036E000E046E90EFF7
:101A84000EF005500126065002220750032208508A
:101A9400042204A050EF0DF052EF0DF0FEEF0DF014
:101AA40010A057EF0DF059EF0DF05FEF0DF0D89047
:101AB40010300109106E61EF0DF0D890103201A0C2
:101AC40066EF0DF068EF0DF069EF0DF0108E043441
:101AD40004320332023201320F2AFEEF0DF00550B8
:101AE400015C06500258075003580450800A096EDE
:101AF4000850800A0958D8B082EF0DF084EF0DF039
:101B0400AFEF0DF00150055C096E025006580A6EE5
:101B1400035007580B6E045008580C6EFF0E09242E
:101B2400016EFF0E0A20026EFF0E0B20036EFF0EE5
:101B34000C20046E800E0D1A106C1050D8A4A5EF62
:101B44000DF0A7EF0DF0B7EF0DF0010E0126000E1A
:101B5400022203220422B7EF0DF00550015E065065
:101B6400025A0750035A0850045A01500210031035
:101B74000410D8A4C0EF0DF0C2EF0DF0F7EF0DF094
:101B84001050D8A4C8EF0DF0CAEF0DF0F7EF0DF028
:101B9400000E016E000E026E000E036E000E046E47
:101BA40090EF0EF0D890013602360336043610AEAC
:101BB400DEEF0DF0E0EF0DF0E1EF0DF0018010A08D
:101BC400E6EF0DF0E8EF0DF0ECEF0DF0D8801036F5
:101BD400EEEF0DF0D89010360F50D8B4F4EF0DF0AE
:101BE400F6EF0DF0F7EF0DF00F0603AEFCEF0DF07E
:101BF400FEEF0DF0D4EF0DF00E6A10AE04EF0EF010
:101C040006EF0EF01EEF0EF010C009F07F0E09165D
:101C1400D8B40FEF0EF011EF0EF015EF0EF0010E29
:101C24000E6E1EEF0EF001A01AEF0EF01CEF0EF078
:101C34001EEF0EF011EF0EF00E50D8B424EF0EF09C
:101C440026EF0EF051EF0EF0010E0126000E0222D7
:101C54000322042204A031EF0EF033EF0EF051EF13
:101C64000EF001C009F002C00AF003C00BF004C07A
:101C74000CF00C340C320B320A32093209C001F078
:101C84000AC002F00BC003F00CC004F00F28D8B453
:101C94004EEF0EF050EF0EF051EF0EF00F2A0F281A
:101CA400D8B457EF0EF059EF0EF061EF0EF00F506D
:101CB400D8A45FEF0EF061EF0EF072EF0EF0000E9D
:101CC400016E000E026E000E036E000E046E0F50C5
:101CD400D8A46FEF0EF071EF0EF072EF0EF00D6AF4
:101CE4000FA077EF0EF079EF0EF07CEF0EF0038E7D
:101CF4007DEF0EF0039ED8900F30046E0DAE85EF8D
:101D04000EF087EF0EF088EF0EF0048E01C001F0A4
:101D140002C002F003C003F004C004F01200125029
:101D2400800B1B6E12501224216E11AE9CEF0EF02C
:101D34009EEF0EF09FEF0EF021802150D8B4A5EF56
:101D44000EF0A7EF0EF0BAEF0EF02128D8A4ADEFF5
:101D54000EF0AFEF0EF0B7EF0EF0000E0F6E000EA8
:101D6400106E000E116E000E126E118EC2EF0EF088
:101D7400000E0F6E000E106E000E116E000E126E2D
:101D84001650800B1B1A16501624206E15AECDEF7C
:101D94000EF0CFEF0EF0D0EF0EF020802050D8B42C
:101DA400D6EF0EF0D8EF0EF0EBEF0EF02028D8A40B
:101DB400DEEF0EF0E0EF0EF0E8EF0EF0000E136E23
:101DC400000E146E000E156E000E166E158EF3EFD7
:101DD4000EF0000E136E000E146E000E156E000E43
:101DE400166E2050D8B4F9EF0EF0FBEF0EF003EFAF
:101DF4000FF02150D8A401EF0FF003EF0FF00DEF17
:101E04000FF0000E0F6E000E106E000E116E000E1D
:101E1400126EA3EF10F015500F02F3CF26F0F4CF9B
:101E240027F026501C6E1D6A1E6A1F6A2750226EF8
:101E3400236A246A256A14501002F3CF26F0F4CFE3
:101E440027F026501C26000E1D221E221F2227507A
:101E54002226000E23222422252213501102F3CF1E
:101E640026F0F4CF27F026501C26000E1D221E2239
:101E74001F2227502226000E2322242225221EC0A0
:101E84001FF01DC01EF01CC01DF01C6A1350100270
:101E9400F3CF26F0F4CF27F026501C2627501D221E
:101EA400000E1E22000E1F2214500F02F3CF26F044
:101EB400F4CF27F026501C2627501D22000E1E2288
:101EC400000E1F221EC01FF01DC01EF01CC01DF0FE
:101ED4001C6A13500F02F3CF26F0F4CF27F02650DC
:101EE4001C2627501D22000E1E22000E1F221550F4
:101EF4001002F3CF26F0F4CF27F0265022262750E5
:101F04002322000E2422000E252214501102F3CFA6
:101F140026F0F4CF27F02650222627502322000E45
:101F24002422000E252215501102F3CF26F0F4CFFF
:101F340027F02650176E2750186E196A1A6A19C0AE
:101F44001AF018C019F017C018F0176A1750222693
:101F540018502322195024221A5025221CC017F08D
:101F64001DC018F01EC019F01FC01AF0190EC0EFE2
:101F74000FF0D8901A32193218321732E82EBBEF0C
:101F84000FF01750222618502322195024221A50D9
:101F940025221EC01FF01DC01EF01CC01DF01C6AAF
:101FA400205021C017F0186A1726000E1822820E3E
:101FB4001724266EFF0E1820276EF6EF0FF0D89028
:101FC40022362336243625361FAEEBEF0FF0EDEF25
:101FD4000FF0EEEF0FF02280D8901C361D361E361F
:101FE4001F362606D8A0270624AEFBEF0FF0FDEF20
:101FF4000FF0E1EF0FF0206A1FAE03EF10F005EFD2
:1020040010F029EF10F0FF0E1C14176EFF0E1D14B4
:10201400186EFF0E1E14196E7F0E1F141A6E1750C1
:10202400181019101A10D8B41AEF10F01CEF10F091
:1020340020EF10F0010E206E29EF10F022A025EF02
:1020440010F027EF10F029EF10F01CEF10F02050E3
:10205400D8B42FEF10F031EF10F055EF10F0010E5F
:102064002226000E23222422252225A03CEF10F054
:102074003EEF10F055EF10F022C017F023C018F017
:1020840024C019F025C01AF01A341A321932183241
:10209400173217C022F018C023F019C024F01AC058
:1020A40025F0264A272A27BE60EF10F0275008E1C2
:1020B4002628D8A060EF10F062EF10F06CEF10F05B
:1020C400000E226E000E236E800E246E7F0E256E8F
:1020D40099EF10F027BE79EF10F0275006E126049F
:1020E400D8B077EF10F079EF10F084EF10F0000E15
:1020F400226E000E236E000E246E000E256E1B6AE7
:1021040099EF10F026C021F0FF0E2216FF0E2316C1
:102114007F0E2416000E251621A093EF10F095EFE4
:1021240010F096EF10F0248ED8902130256E1B50BD
:10213400251222C00FF023C010F024C011F025C0D6
:1021440012F012002B50800B386E2B502B243F6E54
:102154002AAEAFEF10F0B1EF10F0B2EF10F03F8005
:102164003F50D8B4B8EF10F0BAEF10F0CEEF10F043
:102174003F28D8A4C0EF10F0C2EF10F0CAEF10F05F
:10218400000E286E000E296E000E2A6E000E2B6EB5
:102194002A8E2B6AD6EF10F0000E286E000E296EE0
:1021A400000E2A6E000E2B6E2F50800B381A2F5003
:1021B4002F24406E2EAEE1EF10F0E3EF10F0E4EFC9
:1021C40010F040804050D8B4EAEF10F0ECEF10F07B
:1021D40000EF11F04028D8A4F2EF10F0F4EF10F063
:1021E400FCEF10F0000E2C6E000E2D6E000E2E6E05
:1021F400000E2F6E2E8E2F6A08EF11F0000E2C6E3B
:10220400000E2D6E000E2E6E000E2F6E2C502D1013
:102214002E102F10D8A411EF11F013EF11F02BEFA3
:1022240011F0000E286E000E296E000E2A6E000EAC
:102234002B6E800E2A127F0E2B1238502B1228C0C0
:1022440028F029C029F02AC02AF02BC02BF06BEF0C
:1022540012F03F50D8A431EF11F033EF11F03DEFFD
:1022640011F0000E286E000E296E000E2A6E000E6C
:102274002B6E6BEF12F040503FC030F0316A305E8D
:10228400000E315A7F0E3024396E000E31203A6E22
:1022940028C034F029C035F02AC036F02BC037F0FE
:1022A400000E286E000E296E000E2A6E000E2B6E94
:1022B400000E3B6E000E3C6E000E3D6E000E3E6E38
:1022C400406A9DEF11F04050D8B46BEF11F06DEF00
:1022D40011F084EF11F0D89034363536363637366F
:1022E400D890283629362A362B363EAE7CEF11F0AC
:1022F4007EEF11F07FEF11F02880D8903B363C360A
:102304003D363E362C50345C2D5035582E503658C0
:102314002F503758D8A091EF11F093EF11F09CEFA4
:1023240011F03E8C2C50345E2D50355A2E50365AB6
:102334002F50375A402A190E4064A3EF11F0A5EF2D
:1023440011F065EF11F03450351036103710D8B451
:10235400AEEF11F0B0EF11F0C8EF11F03B80C8EF11
:1023640011F0D890283629362A362B363EAEBDEFEA
:1023740011F0BFEF11F0C0EF11F02880D8903B3678
:102384003C363D363E363906D8A03A062AAECDEF65
:1023940011F0CFEF11F0B3EF11F0406A3EAED5EF7C
:1023A40011F0D7EF11F0FBEF11F0FF0E3B14306E7C
:1023B400FF0E3C14316EFF0E3D14326E7F0E3E1440
:1023C400336E3050311032103310D8B4ECEF11F0BA
:1023D400EEEF11F0F2EF11F0010E406EFBEF11F091
:1023E40028A0F7EF11F0F9EF11F0FBEF11F0EEEF89
:1023F40011F04050D8B401EF12F003EF12F027EFC0
:1024040012F0010E2826000E29222A222B222BA0AC
:102414000EEF12F010EF12F027EF12F028C030F098
:1024240029C031F02AC032F02BC033F033343332B8
:1024340032323132303230C028F031C029F032C06B
:102444002AF033C02BF0394A3A2A3ABE32EF12F05E
:102454003A5008E13928D8A032EF12F034EF12F0E4
:102464003FEF12F0000E3A6E3968000E286E000E2F
:10247400296E000E2A6E000E2B6E3ABE4CEF12F03F
:102484003A5006E13904D8B04AEF12F04CEF12F09A
:1024940059EF12F0000E3A6E000E396E000E286EDF
:1024A400000E296E000E2A6E000E2B6E386A39C09B
:1024B4003FF03FA060EF12F062EF12F065EF12F010
:1024C4002A8E66EF12F02A9ED8903F302B6E1FEFB3
:1024D40011F012005E50D96EDA6ADFCFF6FF080EF3
:1024E400F76E0800F550250AD8A47BEF12F07DEFB3
:1024F40012F067EF13F05E50D96EDA6ADF2A000E2D
:102504000001E86F000EE76FE7C0EBF0E969EA69E4
:10251400916BA7EF12F0EB835E50D96EDA6ADF2A73
:10252400A7EF12F0010E916FA7EF12F05E50D96E73
:10253400DA6ADFCFF6FF080EF76E0800F550300AAE
:10254400D8B48DEF12F094EF12F09151D8B4ADEFEE
:1025540012F0AFEF12F098EF12F05E50D96EDA6A13
:10256400DFCFF6FF080EF76E0800F5502E0AD8A448
:10257400BEEF12F0C0EF12F0CEEF12F05E50D96E43
:10258400DA6ADF2A5EC001F05FC002F0F5EC17F0F2
:1025940001C0E9F002C0EAF05E50D96EDA6ADF5099
:1025A4000001936F93C0F6FF080EF76E0800F5CF95
:1025B40092F0E7EF12F0932BF6EF12F06C0E926F9D
:1025C400F6EF12F0926BF6EF12F092514C0AD8B477
:1025D400DDEF12F02A0AD8B4E0EF12F00A0AD8B4F8
:1025E400DDEF12F0E4EF12F093C0F6FF080EF76E81
:1025F4000800F550660AD8A402EF13F004EF13F0B4
:1026040061EF13F02EEF13F05F50D96EDA6ADFCF6B
:102614008CF0040EDF268C51D96EDA6ADECF8DF091
:10262400DECF8EF0DECF8FF0DECF90F039EF13F0F7
:102634005F50D96EDA6ADFCF8CF0040EDF268C513E
:10264400D96EDA6ADECF8DF0DECF8EF0DECF8FF07A
:10265400DECF90F039EF13F092514C0AD8B41AEF50
:1026640013F0200AD8B406EF13F039EF13F05E50DC
:10267400D96EDA6A9329DF6E55EF13F05DC055F019
:102684008DC056F08EC057F08FC058F090C059F0EE
:1026940093C0F6FF080EF76E0800F5CF5AF032EC3F
:1026A40004F078EF13F093C0F6FF080EF76E0800FD
:1026B400F550660AD8B440EF13F061EF13F05E50A2
:1026C400D96EDA6ADF2A78EF13F05E50D96EDA6ACF
:1026D400DFCFF6FF080EF76E0800F550016E026AB0
:1026E4005DC003F04BEC17F061EF13F01200DFC094
:1026F40051F0E0C052F0E1C053F0E2C054F041C0E8
:1027040051F042C052F043C053F044C054F0810E23
:10271400456EFF0E466E51C047F052C048F053C09C
:1027240049F054C04AF0180E9DEF13F0D8904A3285
:10273400493248324732E82E98EF13F04750452487
:102744004F6E000E4620506E50BEB2EF13F0505044
:1027540009E1170E4F5CD8A0B2EF13F0B4EF13F0F9
:10276400BEEF13F041C041F042C042F043C043F019
:1027740044C044F081EF14F050BEC3EF13F0C5EF32
:1027840013F035EF14F04FC045F0FF0E466EFF0E08
:10279400476E7F0E486E000E496E4566D4EF13F007
:1027A400DCEF13F049344932483247324632452E81
:1027B400CFEF13F046C04BF047C04CF048C04DF08B
:1027C40049C04EF04B505114456E4C505214466E55
:1027D4004D505314476E4E505414486E4550461095
:1027E40047104810D8A4F9EF13F0FBEF13F0FDEFF6
:1027F40013F0B4EF13F051C045F052C046F053C08B
:1028040047F054C048F0200E0DEF14F0D890483231
:10281400473246324532E82E08EF14F04550461050
:1028240047104810D8B419EF14F01BEF14F023EF3D
:1028340014F04B5051264C5052224D5053224E50BE
:1028440054224B1C456E4C1C466E4D1C476E4E1C50
:10285400486E45505116465052164750531648502C
:10286400541679EF14F051C045F052C046F053C0ED
:1028740047F054C048F0200E45EF14F0D890483289
:10288400473246324532E82E40EF14F045504610A8
:1028940047104810D8A451EF14F053EF14F05DEF33
:1028A40014F0000E516E000E526E000E536E000EA8
:1028B400546E79EF14F0D8905134456E5234466E0C
:1028C4005334476E5434486E4550461047104810F0
:1028D400D8B46FEF14F071EF14F079EF14F0000E28
:1028E400516E000E526E800E536EBF0E546E51C068
:1028F40041F052C042F053C043F054C044F01200BF
:10290400096E0950D8B489EF14F08BEF14F0ADEFD1
:1029140014F004BE92EF14F090EF14F0ADEF14F045
:1029240001C005F002C006F003C007F004C008F0BF
:10293400051E061E071E081E052A000E0622072273
:10294400082205C00BF006C00CF007C00DF008C04B
:102954000EF0B5EF14F001C00BF002C00CF003C090
:102964000DF004C00EF00150021003100410D8A49E
:10297400BEEF14F0C0EF14F0CAEF14F0000E016EB5
:10298400000E026E000E036E000E046E5BEF15F077
:10299400960E0A6ED4EF14F00A2AD8900E320D3235
:1029A4000C320B32000E0B14056E000E0C14066E66
:1029B400000E0D14076EFE0E0E14086E0550061060
:1029C40007100810D8A4E9EF14F0EBEF14F0CEEFE1
:1029D40014F0F9EF14F00A2A010E0B26000E0C2253
:1029E4000D220E22D8900E320D320C320B32000E14
:1029F4000B14056E000E0C14066E000E0D14076EFB
:102A0400FF0E0E14086E0550061007100810D8A407
:102A14000EEF15F010EF15F0EDEF14F018EF15F0C0
:102A24000A06D8900B360C360D360E360DBE1DEF49
:102A340015F01FEF15F027EF15F0020E0A6025EFD1
:102A440015F027EF15F012EF15F00AB02CEF15F082
:102A54002EEF15F02FEF15F00D9ED8900A320AC014
:102A640005F0066A076A086A05C008F0076A066A7C
:102A7400056A05500B1206500C1207500D1208502F
:102A84000E120950D8B449EF15F04BEF15F053EF7F
:102A940015F004BE52EF15F050EF15F053EF15F09A
:102AA4000E8E0BC001F00CC002F00DC003F00EC07E
:102AB40004F01200433444344A6E4A50D8A465EFFB
:102AC40015F067EF15F071EF15F0000E416E000E72
:102AD400426E000E436E000E446EDEEF15F041C0F0
:102AE40045F042C046F043C047F044C048F0200ED1
:102AF40081EF15F0D8904832473246324532E82EFD
:102B04007CEF15F04550496E438EFF0E4116FF0EC3
:102B14004216FF0E4316000E4416960E4A5E4ABE37
:102B240098EF15F096EF15F0AEEF15F04A50800AC5
:102B3400970FD8B0A0EF15F0A2EF15F0A4EF15F0A1
:102B440067EF15F0D89044324332423241324A3E64
:102B5400A4EF15F0C6EF15F01F0E4A64B4EF15F09C
:102B6400B6EF15F0BEEF15F067EF15F0D8904136CB
:102B74004236433644364A064A50D8A4C4EF15F0C8
:102B8400C6EF15F0B8EF15F04950D8B4CCEF15F0F6
:102B9400CEEF15F0D6EF15F0441E431E421E416CD5
:102BA400000E42224322442241C041F042C042F07E
:102BB40043C043F044C044F01200000E2814306EA9
:102BC400000E2914316E800E2A14326E7F0E2B14DF
:102BD400336E3050311032103310D8A4F4EF15F0A6
:102BE400F6EF15F0FEEF15F0000E286E000E296EBC
:102BF400000E2A6E000E2B6E000E2C14306E000E8A
:102C04002D14316E800E2E14326E7F0E2F14336EFF
:102C14003050311032103310D8A413EF16F015EFE2
:102C240016F01DEF16F0000E2C6E000E2D6E000E29
:102C34002E6E000E2F6E2BAE22EF16F024EF16F040
:102C44002DEF16F0286C291ED8B0292A2A1ED8B0D8
:102C54002A2A800E2B562FAE32EF16F034EF16F0E0
:102C64003DEF16F02C6C2D1ED8B02D2A2E1ED8B098
:102C74002E2A800E2F56000E281A000E291A000E36
:102C84002A1A800E2B1A000E2C1A000E2D1A000E72
:102C94002E1A800E2F1A2C50285C2D5029582E5095
:102CA4002A582F502B58D8B05AEF16F05CEF16F074
:102CB4005FEF16F0D89060EF16F0D8801200E3C0F2
:102CC4000BF0E4C00CF0E5C00DF0E6C00EF001C05E
:102CD4000BF002C00CF003C00DF004C00EF00BC0EA
:102CE40005F00CC006F00DC007F00EC008F0180E79
:102CF40081EF16F0D8900832073206320532E82EFA
:102D04007CEF16F00550096E0A6A09500A10D8A41F
:102D14008EEF16F090EF16F0B0EF16F0D8900B345B
:102D2400056E0C34066E0D34076E0E34086E0550B5
:102D3400061007100810D8A4A2EF16F0A4EF16F09E
:102D4400AAEF16F0000E026E020E016EDFEF16F00F
:102D5400000E026E030E016EDFEF16F009280A1052
:102D6400D8A4B7EF16F0B9EF16F0DBEF16F00BC0EE
:102D740005F00CC006F00DC007F00EC008F0090EF7
:102D8400D8900536063607360836E82EC2EF16F018
:102D94000550061007100810D8B4D3EF16F0D6EF7C
:102DA40016F0010ED7EF16F0000E016E026ADFEF87
:102DB40016F0000E026E040E016E1200020E026E78
:102DC400450E016EAA0EE82EFED7012EFCD7022E68
:102DD400FAD78C9E8C9C8C8A8C8878EC1AF01E0E08
:102DE400016E370EE82EFED7012EFCD700008C9E14
:102DF4008C9C8C8A8C8878EC1AF0C80EE82EFED74E
:102E04008C9E8C9C8C8A8C8878EC1AF08C9E8C9C82
:102E14008C8A8C9878EC1AF08C9E8C9C8C8A8C987A
:102E240078EC1AF08C8E8C9C8C9A8C9878EC1AF036
:102E34008C9E8C9C8C9A8C9878EC1AF08C8E8C9C42
:102E44008C9A8C9878EC1AF08C9E8C9C8C9A8C982A
:102E540078EC1AF08C9E8C9C8C9A8C8878EC1AF006
:102E64008C9E8C9C8C9A8C9878EC1AF08C9E8C8C12
:102E74008C8A8C9878EC1AF08C9E8C9C8C9A8C980A
:102E840078EC1AF08C8E8C8C8C8A8C9878EC1AF0F6
:102E940012000350D8B451EF17F053EF17F05BEF63
:102EA40017F00350D8A459EF17F05BEF17F060EF59
:102EB40017F0015082EC1AF09FEF17F00350D96E0F
:102EC400DA6A090ED926DE50DE10D8B46CEF17F09A
:102ED4006EEF17F087EF17F00350D96EDA6A090E18
:102EE400D9260350E16EE26A020EE126DE50E65C6A
:102EF400E650800A086EDE50800A0858D8B085EF84
:102F040017F087EF17F09FEF17F00350D96EDA6AC6
:102F1400020ED926DF50046E0350D96EDA6ADF50F0
:102F24000424D96EDA6A01C0DFFF0350D96EDA6A6D
:102F3400020ED926DE2A000EDD221200000E011434
:102F4400096E000E02140A6E800E03140B6E7F0EBF
:102F540004140C6E09500A100B100C10D8A4B5EF11
:102F640017F0B7EF17F0BFEF17F0000E016E000E69
:102F7400026E000E036E000E046E000E0514096E40
:102F8400000E06140A6E800E07140B6E7F0E0814D2
:102F94000C6E09500A100B100C10D8A4D4EF17F0C3
:102FA400D6EF17F0DEEF17F0000E056E000E066E7A
:102FB400000E076E000E086E055001180FE1065052
:102FC40002180CE10750031809E108500418D8B49A
:102FD400EEEF17F0F0EF17F0F3EF17F0D890F4EFEF
:102FE40017F0D8801200000E076E000E066E015016
:102FF400D96EDA6ADFCFF6FF080EF76E0800F550D7
:103004002A0AD8A408EF18F00AEF18F02FEF18F0E6
:103014000150D96EDA6ADF2A0250D96EDA6A020EDA
:10302400DF26DF5CD96EDA6ADECF06F0DECF07F08A
:1030340042EF18F00A0E0602F3CF03F0F4CF04F0C7
:103044000702F350042605500324066E000E0420E4
:10305400076E0150D96EDA6ADF2A0150D96EDA6A36
:10306400DFCFF6FF080EF76E0800F550D00F056E9F
:10307400090E056440EF18F042EF18F01CEF18F049
:1030840006C001F007C002F01200026E02C001F097
:10309400D8900132D8900132D8900132010E011635
:1030A400013201328C5001187F0B01188C6E02C062
:1030B40001F0D8900132D8900132010E0116013A84
:1030C400014601468C500118BF0B01188C6E02C0DA
:1030D40001F0D8900132010E0116013A01468C50DC
:1030E4000118DF0B01188C6E02C001F0010E0116ED
:1030F400013A8C500118EF0B01188C6E78EC1AF021
:10310400120013BE8AEF18F088EF18F08EEF18F053
:10311400000E136E000E126E000E166E000E156E6B
:103124009EEF18F0000E026E200E016E0FC003F029
:103134004BEC17F0154A162A1250155C1650800AEB
:10314400146E1350800A1458D8A0ABEF18F0ADEFEA
:1031540018F094EF18F010C009F011C00AF00FC075
:103164000BF0AAEC19F01200CCEF18F002C0F6FF35
:1031740003C0F7FFF86A070EF76403D00800F550A0
:1031840005D0F6CFE1FFF7CFE2FFE7504CEC1AF0A1
:10319400024A032A02C0F6FF03C0F7FFF86A070ECB
:1031A400F76403D00800F55005D0F6CFE1FFF7CF60
:1031B400E2FFE7500009D8A4E2EF18F0E4EF18F0BA
:1031C400B8EF18F01200FBEF18F004C0F6FF05C0CA
:1031D400F7FFF86A070EF76403D00800F55005D02E
:1031E400F6CFE1FFF7CFE2FFE75057EC1AF0044ABD
:1031F400052A04C0F6FF05C0F7FFF86A070EF76456
:1032040003D00800F55005D0F6CFE1FFF7CFE2FF79
:10321400E7500009D8A411EF19F013EF19F0E7EF04
:1032240018F0120004BE19EF19F01BEF19F025EF86
:1032340019F001C001F002C002F003C003F004C0A1
:1032440004F03EEF19F001C005F002C006F003C01F
:1032540007F004C008F0051E061E071E081E052AF6
:10326400000E06220722082205C001F006C002F063
:1032740007C003F008C004F0120003C009F004C042
:103284000AF001C007F002C008F059EF19F009C0B4
:10329400D9FF0AC0DAFFDF500B6E094A0A2A07C0B9
:1032A400D9FF08C0DAFF0BC0DFFF074A082A05066A
:1032B400D8A00606052806E10628D8A464EF19F06C
:1032C40066EF19F049EF19F01200000E2C1A000EE7
:1032D4002D1A000E2E1A800E2F1A28C001F029C0B4
:1032E40002F02AC003F02BC004F02CC005F02DC05E
:1032F40006F02EC007F02FC008F036EC0CF001C029
:1033040028F002C029F003C02AF004C02BF01200F8
:1033140095C097F096EF19F094C05DF0970E5E6E2D
:1033240096C05FF06CEC12F097C0F6FF080EF76ED3
:103334000800F5500009D8A4A2EF19F0A4EF19F081
:103344008EEF19F0000E0001956F000E946F1200BD
:10335400000E0E6E000E0D6EB9EF19F00CC001F0E8
:10336400026A0BC003F04BEC17F00D4A0E2A0D5005
:103374000924D96E0E500A20DA6EDF500C6E0C5000
:10338400D8A4C7EF19F0C9EF19F0B0EF19F0120083
:1033940001C005F002C006F0032A0304046E04C051
:1033A400F6FF080EF76E05C0D9FF06C0DAFF054A1E
:1033B400062A0800F5CFDFFFDF50D8A4E4EF19F0A8
:1033C400E6EF19F0CEEF19F012009A0E00019E6F8D
:1033D40098C09FF0000EA26F000EA16F000EA96F9F
:1033E400000EA86F9F0E946F99C095F09E0E966F75
:1033F4008AEC19F000019851A125D96EDA6ADF6AC6
:1034040012000150021003100410D8B40CEF1AF08B
:103414000EEF1AF016EF1AF0000E011A000E021A3F
:10342400000E031A800E041A01C001F002C002F05B
:1034340003C003F004C004F01200066E0604D8A40E
:1034440026EF1AF028EF1AF02BEF1AF004507F0F32
:10345400056E020E0618D8A432EF1AF034EF1AF0F3
:1034640037EF1AF00450BF0F056E05506DEC1AF0DB
:10347400120001EE00F0500EEE6AE806FDE100EEE7
:10348400DFF00D0EEE6AE806FDE1000EF86E0001B5
:1034940059EF09F0016EACA252EF1AF054EF1AF092
:1034A4004DEF1AF001C0ADFF1200036E8D8003389A
:1034B4000F0B47EC18F003500F0B47EC18F01200F9
:1034C400010E6DEC1AF00D0E046EFC0EE82EFED704
:1034D400042EFCD71200036E8D9003380F0B47ECBB
:1034E40018F003500F0B47EC18F012008D8200D037
:1034F40000D000008D92A60EE82EFED700D0120058
:023504001200B3
:047FFC003BEF1AF04D
:020000040030CA
:0E000000000C181EFF8181FF0FC00FE00F40A3
:00000001FF
