:04000000FEEF3FF0E0
:1008000000486F726172696F205554432D33003A6E
:100810000000966A956A8D6AE0EC04F0020E046EA0
:10082000010E3DEC06F0010E046E59EC06F0170EB9
:10083000116E3B0E126E370E136E050E146E11C044
:1008400001F0026A000E046E0A0E036EACEC05F0B5
:100850000150300F0B6E11C001F0026A000E046EE1
:100860000A0E036E4BEC05F00150300F0C6E12C0F7
:1008700001F0026A000E046E0A0E036EACEC05F085
:100880000150300F0D6E12C001F0026A000E046EAE
:100890000A0E036E4BEC05F00150300F0E6E13C0C4
:1008A00001F0026A000E046E0A0E036EACEC05F055
:1008B0000150300F0F6E13C001F0026A000E046E7B
:1008C0000A0E036E4BEC05F00150300F106E14C091
:1008D00004F0020E3DEC06F00C506FEC06F014280C
:1008E000046E020E3DEC06F00B506FEC06F0145057
:1008F000020F046E020E3DEC06F00F0E046E59EC72
:1009000006F01450030F046E020E3DEC06F00E507C
:100910006FEC06F01450040F046E020E3DEC06F06E
:100920000D506FEC06F01450050F046E020E3DECF6
:1009300006F00F0E046E59EC06F01450060F046E0C
:10094000020E3DEC06F010506FEC06F01450070F4D
:10095000046E020E3DEC06F00F506FEC06F01A0E1E
:100960000A6E5E0E096E6E0EE82EFED7092EFCD7BB
:100970000A2EFAD700D0132A3C0E1318D8A4C3EFBE
:1009800004F0C5EF04F0C7EF04F0136A122A3C0E1E
:100990001218D8A4CEEF04F0D0EF04F0D2EF04F098
:1009A000126A112A180E1118D8A4D9EF04F0DBEF3F
:1009B00004F01FEF04F0116A1FEF04F0FEEF3FF0A8
:1009C000020E026E450E016EAA0EE82EFED7012E13
:1009D000FCD7022EFAD78A968A948A828A8085EC7E
:1009E00006F01E0E016E370EE82EFED7012EFCD744
:1009F00000008A968A948A828A8085EC06F0C80E66
:100A0000E82EFED78A968A948A828A8085EC06F040
:100A10008A968A948A828A9085EC06F08A968A94CD
:100A20008A828A9085EC06F08A868A948A928A90D5
:100A300085EC06F08A968A948A928A9085EC06F074
:100A40008A868A948A928A9085EC06F08A968A949D
:100A50008A928A9085EC06F08A968A948A928A8095
:100A600085EC06F08A968A948A928A9085EC06F044
:100A70008A968A848A828A9085EC06F08A968A947D
:100A80008A928A9085EC06F08A868A848A828A9085
:100A900085EC06F01200066A04BE53EF05F051EF34
:100AA00005F059EF05F0036C041ED8B0042A010EBE
:100AB000066E02BE60EF05F05EEF05F066EF05F032
:100AC000016C021ED8B0022A010E061A000E086E32
:100AD000000E076E03500410D8B471EF05F073EFE9
:100AE00005F09BEF05F0010E056E7BEF05F0D89049
:100AF00003360436052A04AE80EF05F082EF05F0D8
:100B000077EF05F0D890073608360350015C0450A3
:100B10000258D8A08EEF05F090EF05F095EF05F0A4
:100B20000350015E0450025A0780D8900432033209
:100B3000052E82EF05F00650D8B4A1EF05F0A3EF23
:100B400005F0A7EF05F0076C081ED8B0082A07C00B
:100B500001F008C002F01200066A02BEB4EF05F010
:100B6000B2EF05F0BAEF05F0016C021ED8B0022A10
:100B7000010E066E04BEC1EF05F0BFEF05F0C5EF34
:100B800005F0036C041ED8B0042A03500410D8B436
:100B9000CCEF05F0CEEF05F0F2EF05F0010E056E9B
:100BA000D6EF05F0D89003360436052A04AEDBEF05
:100BB00005F0DDEF05F0D2EF05F00350015C0450C5
:100BC0000258D8A0E6EF05F0E8EF05F0ECEF05F0ED
:100BD0000350015E0450025AD89004320332052EAD
:100BE000DDEF05F00650D8B4F8EF05F0FAEF05F0A8
:100BF000FEEF05F0016C021ED8B0022A01C001F020
:100C000002C002F01200026E02C001F0D890013260
:100C1000D8900132D8900132010E011601460146EA
:100C200001468A500118F70B01188A6E02C001F0C4
:100C3000D8900132D8900132010E011601460146CA
:100C40008A500118FB0B01188A6E02C001F0D8907F
:100C50000132010E011601468A500118FD0B0118E0
:100C60008A6E02C001F0010E01168A500118FE0BB7
:100C700001188A6E85EC06F01200066E0604D8A4F0
:100C800044EF06F046EF06F049EF06F004507F0F00
:100C9000056E020E0618D8A450EF06F052EF06F0CB
:100CA00055EF06F00450BF0F056E05507AEC06F0C4
:100CB000120062EF06F004C0F6FF0800F5506FEC7A
:100CC00006F0042A04C0F6FF0800F5500009D8A475
:100CD0006CEF06F06EEF06F05BEF06F01200036EAD
:100CE0008C8203380F0B03EC06F003500F0B03EC60
:100CF00006F01200036E8C9203380F0B03EC06F023
:100D000003500F0B03EC06F012008C8000D000D0D3
:100D100000008C90A60EE82EFED700D01200000E28
:0C0D2000F86E080EF76E000109EF04F0F9
:047FFC008FEF06F00D
:020000040030CA
:0E000000000C181EFF8181FF0FC00FE00F40A3
:00000001FF
