:0400000040EF00F0DD
:060008001A8258ED06F01B
:100018001A80D8CF01F0E8CF02F0E0CF03F0F090DB
:10002800180E14181510D8A41CEF00F01EEF00F0DD
:1000380034EF00F01950D8A424EF00F026EF00F0B8
:100048002AEF00F00C0E196E34EF00F00C0E196454
:1000580030EF00F032EF00F034EF00F00C0E195ED4
:10006800000E156E0C0E146E03C0E0FF02C0E8FF10
:0C00780001C0D8FF1A9010009EEF06F0A7
:1008000000486F726172696F205554432D33002E7A
:10081000003A0000966A956A110E936E8D6AF19EF9
:10082000D08EF28EF28CF292F288F19CF090F086EB
:10083000F19AF090F9EC04F0020E076E010E82ECD2
:1008400006F0010E076EB7EC06F019C004F0056A59
:10085000000E076E0A0E066EC5EC05F00450300F50
:100860000E6E19C004F0056A000E076E0A0E066EC1
:1008700064EC05F00450300F0F6E18C004F0056AE8
:10088000000E076E0A0E066EC5EC05F00450300F20
:10089000106E18C004F0056A000E076E0A0E066E90
:1008A00064EC05F00450300F116E17C004F0056AB7
:1008B000000E076E0A0E066EC5EC05F00450300FF0
:1008C000126E17C004F0056A000E076E0A0E066E5F
:1008D00064EC05F00450300F136E050E076E020E27
:1008E00082EC06F00F50CDEC06F0060E076E020EFD
:1008F00082EC06F00E50CDEC06F0070E076E020EED
:1009000082EC06F0110E076EB7EC06F0080E076ECB
:10091000020E82EC06F01150CDEC06F0090E076EC7
:10092000020E82EC06F01050CDEC06F00A0E076EB7
:10093000020E82EC06F0110E076EB7EC06F00B0EFD
:10094000076E020E82EC06F01350CDEC06F00C0E92
:10095000076E020E82EC06F01250CDEC06F01A0E75
:100960000D6E5E0E0C6E6E0EE82EFED70C2EFCD7B2
:100970000D2EFAD700D0172A3C0E1718D8A4C3EFB3
:1009800004F0C5EF04F0C7EF04F0176A182A3C0E14
:100990001818D8A4CEEF04F0D0EF04F0D2EF04F092
:1009A000186A192A19500C6E0D6A14500C1807E1B8
:1009B00015500D18D8A4DFEF04F0E1EF04F0E2EFDA
:1009C00004F0196A0C0E14181510D8A4EAEF04F0FC
:1009D000ECEF04F025EF04F00F0E076E020E82EC30
:1009E00006F00F0E076EB7EC06F025EF04F040EFAF
:1009F00000F0020E056E450E046EAA0EE82EFED71C
:100A0000042EFCD7052EFAD78C9E8C9C8C8A8C8861
:100A1000E3EC06F01E0E046E370EE82EFED7042E11
:100A2000FCD700008C9E8C9C8C8A8C88E3EC06F0B2
:100A3000C80EE82EFED78C9E8C9C8C8A8C88E3ECAA
:100A400006F08C9E8C9C8C8A8C98E3EC06F08C9E35
:100A50008C9C8C8A8C98E3EC06F08C8E8C9C8C9A07
:100A60008C98E3EC06F08C9E8C9C8C9A8C98E3EC32
:100A700006F08C8E8C9C8C9A8C98E3EC06F08C9E05
:100A80008C9C8C9A8C98E3EC06F08C9E8C9C8C9AB7
:100A90008C88E3EC06F08C9E8C9C8C9A8C98E3EC12
:100AA00006F08C9E8C8C8C8A8C98E3EC06F08C9EE5
:100AB0008C9C8C9A8C98E3EC06F08C8E8C8C8C8AB7
:100AC0008C98E3EC06F01200096A07BE6CEF05F0A3
:100AD0006AEF05F072EF05F0066C071ED8B0072A22
:100AE000010E096E05BE79EF05F077EF05F07FEF97
:100AF00005F0046C051ED8B0052A010E091A000E77
:100B00000B6E000E0A6E06500710D8B48AEF05F07F
:100B10008CEF05F0B4EF05F0010E086E94EF05F0D0
:100B2000D89006360736082A07AE99EF05F09BEFF6
:100B300005F090EF05F0D8900A360B360650045CAD
:100B400007500558D8A0A7EF05F0A9EF05F0AEEFC4
:100B500005F00650045E0750055A0A80D890073207
:100B60000632082E9BEF05F00950D8B4BAEF05F015
:100B7000BCEF05F0C0EF05F00A6C0B1ED8B00B2AD5
:100B80000AC004F00BC005F01200096A05BECDEFE3
:100B900005F0CBEF05F0D3EF05F0046C051ED8B0DF
:100BA000052A010E096E07BEDAEF05F0D8EF05F051
:100BB000DEEF05F0066C071ED8B0072A06500710B6
:100BC000D8B4E5EF05F0E7EF05F00BEF06F0010E06
:100BD000086EEFEF05F0D89006360736082A07AE04
:100BE000F4EF05F0F6EF05F0EBEF05F00650045CCE
:100BF00007500558D8A0FFEF05F001EF06F005EF0C
:100C000006F00650045E0750055AD89007320632A7
:100C1000082EF6EF05F00950D8B411EF06F013EFE7
:100C200006F017EF06F0046C051ED8B0052A04C0C4
:100C300004F005C005F01200056E05C004F0D89060
:100C40000432D8900432D8900432010E04160432D3
:100C500004328C5004187F0B04188C6E05C004F00D
:100C6000D8900432D8900432010E0416043A044697
:100C700004468C500418BF0B04188C6E05C004F099
:100C8000D8900432010E0416043A04468C5004181D
:100C9000DF0B04188C6E05C004F0010E0416043A34
:100CA0008C500418EF0B04188C6EE3EC06F0120065
:100CB0000600F2920C0E14181510D8A462EF06F07C
:100CC00064EF06F07CEF06F00C0E1918D8A46BEF59
:100CD00006F06DEF06F070EF06F0196A7CEF06F093
:100CE0000C0E196076EF06F078EF06F07AEF06F05A
:100CF0007CEF06F00C0E1926000E156E180E146E01
:100D00001A921100096E0904D8A489EF06F08BEF3E
:100D100006F08EEF06F007507F0F086E020E0918DE
:100D2000D8A495EF06F097EF06F09AEF06F007507B
:100D3000BF0F086E0850D8EC06F01200DA0EF66EFF
:100D40000D0EF76E000EF86E00EE14F010EE06F0C9
:100D50000900F5CFEEFFE550E150FAE11A901A9242
:100D6000000EF86E080EF76E00010AEF04F0C0EFF7
:100D700006F007C0F6FF0800F550CDEC06F0072A94
:100D800007C0F6FF0800F5500009D8A4CAEF06F026
:100D9000CCEF06F0B9EF06F01200066E8D80063833
:100DA0000F0B1CEC06F006500F0B1CEC06F01200AB
:100DB000066E8D9006380F0B1CEC06F006500F0BDC
:100DC0001CEC06F012008D8200D000D000008D9245
:100DD000A60EE82EFED700D01200180005373B0DF6
:020000040030CA
:0E000000000C181EFF8181FF0FC00FE00F40A3
:00000001FF
